{"abi":[{"type":"function","name":"onERC1155BatchReceived","inputs":[{"name":"","type":"address","internalType":"address"},{"name":"","type":"address","internalType":"address"},{"name":"","type":"uint256[]","internalType":"uint256[]"},{"name":"","type":"uint256[]","internalType":"uint256[]"},{"name":"","type":"bytes","internalType":"bytes"}],"outputs":[{"name":"","type":"bytes4","internalType":"bytes4"}],"stateMutability":"pure"},{"type":"function","name":"onERC1155Received","inputs":[{"name":"","type":"address","internalType":"address"},{"name":"","type":"address","internalType":"address"},{"name":"","type":"uint256","internalType":"uint256"},{"name":"","type":"uint256","internalType":"uint256"},{"name":"","type":"bytes","internalType":"bytes"}],"outputs":[{"name":"","type":"bytes4","internalType":"bytes4"}],"stateMutability":"pure"},{"type":"function","name":"onERC721Received","inputs":[{"name":"","type":"address","internalType":"address"},{"name":"","type":"address","internalType":"address"},{"name":"","type":"uint256","internalType":"uint256"},{"name":"","type":"bytes","internalType":"bytes"}],"outputs":[{"name":"","type":"bytes4","internalType":"bytes4"}],"stateMutability":"pure"},{"type":"function","name":"supportsInterface","inputs":[{"name":"interfaceId","type":"bytes4","internalType":"bytes4"}],"outputs":[{"name":"","type":"bool","internalType":"bool"}],"stateMutability":"view"}],"bytecode":{"object":"0x6080604052348015600f57600080fd5b506104048061001f6000396000f3fe608060405234801561001057600080fd5b506004361061004c5760003560e01c806301ffc9a714610051578063150b7a0214610079578063bc197c81146100b1578063f23a6e61146100d3575b600080fd5b61006461005f366004610145565b6100f3565b60405190151581526020015b60405180910390f35b6100986100873660046101db565b630a85bd0160e11b95945050505050565b6040516001600160e01b03199091168152602001610070565b6100986100bf36600461028f565b63bc197c8160e01b98975050505050505050565b6100986100e1366004610356565b63f23a6e6160e01b9695505050505050565b60006001600160e01b03198216630a85bd0160e11b148061012457506001600160e01b03198216630271189760e51b145b8061013f57506001600160e01b031982166301ffc9a760e01b145b92915050565b60006020828403121561015757600080fd5b81356001600160e01b03198116811461016f57600080fd5b9392505050565b80356001600160a01b038116811461018d57600080fd5b919050565b60008083601f8401126101a457600080fd5b50813567ffffffffffffffff8111156101bc57600080fd5b6020830191508360208285010111156101d457600080fd5b9250929050565b6000806000806000608086880312156101f357600080fd5b6101fc86610176565b945061020a60208701610176565b935060408601359250606086013567ffffffffffffffff81111561022d57600080fd5b61023988828901610192565b969995985093965092949392505050565b60008083601f84011261025c57600080fd5b50813567ffffffffffffffff81111561027457600080fd5b6020830191508360208260051b85010111156101d457600080fd5b60008060008060008060008060a0898b0312156102ab57600080fd5b6102b489610176565b97506102c260208a01610176565b9650604089013567ffffffffffffffff8111156102de57600080fd5b6102ea8b828c0161024a565b909750955050606089013567ffffffffffffffff81111561030a57600080fd5b6103168b828c0161024a565b909550935050608089013567ffffffffffffffff81111561033657600080fd5b6103428b828c01610192565b999c989b5096995094979396929594505050565b60008060008060008060a0878903121561036f57600080fd5b61037887610176565b955061038660208801610176565b94506040870135935060608701359250608087013567ffffffffffffffff8111156103b057600080fd5b6103bc89828a01610192565b979a969950949750929593949250505056fea2646970667358221220893cd87f3e3c6e0a0917f685a1d1ef6846ebacf1cf54955dd78ed891c7bee01064736f6c634300081a0033","linkReferences":{}},"methodIdentifiers":{"onERC1155BatchReceived(address,address,uint256[],uint256[],bytes)":"bc197c81","onERC1155Received(address,address,uint256,uint256,bytes)":"f23a6e61","onERC721Received(address,address,uint256,bytes)":"150b7a02","supportsInterface(bytes4)":"01ffc9a7"},"id":47}