{"abi":[{"type":"constructor","inputs":[],"stateMutability":"nonpayable"},{"type":"function","name":"approve","inputs":[{"name":"to","type":"address","internalType":"address"},{"name":"tokenId","type":"uint256","internalType":"uint256"}],"outputs":[],"stateMutability":"nonpayable"},{"type":"function","name":"balanceOf","inputs":[{"name":"owner","type":"address","internalType":"address"}],"outputs":[{"name":"","type":"uint256","internalType":"uint256"}],"stateMutability":"view"},{"type":"function","name":"burn","inputs":[{"name":"_tokenId","type":"uint256","internalType":"uint256"}],"outputs":[],"stateMutability":"nonpayable"},{"type":"function","name":"currURI","inputs":[],"outputs":[{"name":"","type":"string","internalType":"string"}],"stateMutability":"view"},{"type":"function","name":"getApproved","inputs":[{"name":"tokenId","type":"uint256","internalType":"uint256"}],"outputs":[{"name":"","type":"address","internalType":"address"}],"stateMutability":"view"},{"type":"function","name":"isApprovedForAll","inputs":[{"name":"owner","type":"address","internalType":"address"},{"name":"operator","type":"address","internalType":"address"}],"outputs":[{"name":"","type":"bool","internalType":"bool"}],"stateMutability":"view"},{"type":"function","name":"mint","inputs":[{"name":"to","type":"address","internalType":"address"}],"outputs":[],"stateMutability":"nonpayable"},{"type":"function","name":"name","inputs":[],"outputs":[{"name":"","type":"string","internalType":"string"}],"stateMutability":"view"},{"type":"function","name":"owner","inputs":[],"outputs":[{"name":"","type":"address","internalType":"address"}],"stateMutability":"view"},{"type":"function","name":"ownerOf","inputs":[{"name":"tokenId","type":"uint256","internalType":"uint256"}],"outputs":[{"name":"","type":"address","internalType":"address"}],"stateMutability":"view"},{"type":"function","name":"renounceOwnership","inputs":[],"outputs":[],"stateMutability":"nonpayable"},{"type":"function","name":"safeTransferFrom","inputs":[{"name":"from","type":"address","internalType":"address"},{"name":"to","type":"address","internalType":"address"},{"name":"tokenId","type":"uint256","internalType":"uint256"}],"outputs":[],"stateMutability":"nonpayable"},{"type":"function","name":"safeTransferFrom","inputs":[{"name":"from","type":"address","internalType":"address"},{"name":"to","type":"address","internalType":"address"},{"name":"tokenId","type":"uint256","internalType":"uint256"},{"name":"data","type":"bytes","internalType":"bytes"}],"outputs":[],"stateMutability":"nonpayable"},{"type":"function","name":"setApprovalForAll","inputs":[{"name":"operator","type":"address","internalType":"address"},{"name":"approved","type":"bool","internalType":"bool"}],"outputs":[],"stateMutability":"nonpayable"},{"type":"function","name":"supportsInterface","inputs":[{"name":"interfaceId","type":"bytes4","internalType":"bytes4"}],"outputs":[{"name":"","type":"bool","internalType":"bool"}],"stateMutability":"view"},{"type":"function","name":"symbol","inputs":[],"outputs":[{"name":"","type":"string","internalType":"string"}],"stateMutability":"view"},{"type":"function","name":"tokenId","inputs":[],"outputs":[{"name":"","type":"uint256","internalType":"uint256"}],"stateMutability":"view"},{"type":"function","name":"tokenURI","inputs":[{"name":"tokenId","type":"uint256","internalType":"uint256"}],"outputs":[{"name":"","type":"string","internalType":"string"}],"stateMutability":"view"},{"type":"function","name":"transferFrom","inputs":[{"name":"from","type":"address","internalType":"address"},{"name":"to","type":"address","internalType":"address"},{"name":"tokenId","type":"uint256","internalType":"uint256"}],"outputs":[],"stateMutability":"nonpayable"},{"type":"function","name":"transferOwnership","inputs":[{"name":"newOwner","type":"address","internalType":"address"}],"outputs":[],"stateMutability":"nonpayable"},{"type":"event","name":"Approval","inputs":[{"name":"owner","type":"address","indexed":true,"internalType":"address"},{"name":"approved","type":"address","indexed":true,"internalType":"address"},{"name":"tokenId","type":"uint256","indexed":true,"internalType":"uint256"}],"anonymous":false},{"type":"event","name":"ApprovalForAll","inputs":[{"name":"owner","type":"address","indexed":true,"internalType":"address"},{"name":"operator","type":"address","indexed":true,"internalType":"address"},{"name":"approved","type":"bool","indexed":false,"internalType":"bool"}],"anonymous":false},{"type":"event","name":"OwnershipTransferred","inputs":[{"name":"previousOwner","type":"address","indexed":true,"internalType":"address"},{"name":"newOwner","type":"address","indexed":true,"internalType":"address"}],"anonymous":false},{"type":"event","name":"Transfer","inputs":[{"name":"from","type":"address","indexed":true,"internalType":"address"},{"name":"to","type":"address","indexed":true,"internalType":"address"},{"name":"tokenId","type":"uint256","indexed":true,"internalType":"uint256"}],"anonymous":false},{"type":"error","name":"ERC721IncorrectOwner","inputs":[{"name":"sender","type":"address","internalType":"address"},{"name":"tokenId","type":"uint256","internalType":"uint256"},{"name":"owner","type":"address","internalType":"address"}]},{"type":"error","name":"ERC721InsufficientApproval","inputs":[{"name":"operator","type":"address","internalType":"address"},{"name":"tokenId","type":"uint256","internalType":"uint256"}]},{"type":"error","name":"ERC721InvalidApprover","inputs":[{"name":"approver","type":"address","internalType":"address"}]},{"type":"error","name":"ERC721InvalidOperator","inputs":[{"name":"operator","type":"address","internalType":"address"}]},{"type":"error","name":"ERC721InvalidOwner","inputs":[{"name":"owner","type":"address","internalType":"address"}]},{"type":"error","name":"ERC721InvalidReceiver","inputs":[{"name":"receiver","type":"address","internalType":"address"}]},{"type":"error","name":"ERC721InvalidSender","inputs":[{"name":"sender","type":"address","internalType":"address"}]},{"type":"error","name":"ERC721NonexistentToken","inputs":[{"name":"tokenId","type":"uint256","internalType":"uint256"}]},{"type":"error","name":"OwnableInvalidOwner","inputs":[{"name":"owner","type":"address","internalType":"address"}]},{"type":"error","name":"OwnableUnauthorizedAccount","inputs":[{"name":"account","type":"address","internalType":"address"}]}],"bytecode":{"object":"0x6080604052600160085534801561001557600080fd5b50336040518060400160405280601381526020017f546f6b656e426f756e6465644163636f756e74000000000000000000000000008152506040518060400160405280600381526020016254424160e81b815250816000908161007891906101b6565b50600161008582826101b6565b5050506001600160a01b0381166100b657604051631e4fbdf760e01b81526000600482015260240160405180910390fd5b6100bf816100c5565b50610274565b600680546001600160a01b038381166001600160a01b0319831681179093556040519116919082907f8be0079c531659141344cd1fd0a4f28419497f9722a3daafe3b4186f6b6457e090600090a35050565b634e487b7160e01b600052604160045260246000fd5b600181811c9082168061014157607f821691505b60208210810361016157634e487b7160e01b600052602260045260246000fd5b50919050565b601f8211156101b157806000526020600020601f840160051c8101602085101561018e5750805b601f840160051c820191505b818110156101ae576000815560010161019a565b50505b505050565b81516001600160401b038111156101cf576101cf610117565b6101e3816101dd845461012d565b84610167565b6020601f82116001811461021757600083156101ff5750848201515b600019600385901b1c1916600184901b1784556101ae565b600084815260208120601f198516915b828110156102475787850151825560209485019460019092019101610227565b50848210156102655786840151600019600387901b60f8161c191681555b50505050600190811b01905550565b611237806102836000396000f3fe608060405234801561001057600080fd5b506004361061012c5760003560e01c80636a627842116100ad578063a22cb46511610071578063a22cb46514610260578063b88d4fde14610273578063c87b56dd14610286578063e985e9c514610299578063f2fde38b146102ac57600080fd5b80636a6278421461021957806370a082311461022c578063715018a61461023f5780638da5cb5b1461024757806395d89b411461025857600080fd5b806323b872dd116100f457806323b872dd146101c557806342842e0e146101d857806342966c68146101eb5780636352211e146101fe578063645a00c61461021157600080fd5b806301ffc9a71461013157806306fdde0314610159578063081812fc1461016e578063095ea7b31461019957806317d70f7c146101ae575b600080fd5b61014461013f366004610e77565b6102bf565b60405190151581526020015b60405180910390f35b610161610311565b6040516101509190610ee4565b61018161017c366004610ef7565b6103a3565b6040516001600160a01b039091168152602001610150565b6101ac6101a7366004610f2c565b6103cc565b005b6101b760085481565b604051908152602001610150565b6101ac6101d3366004610f56565b6103db565b6101ac6101e6366004610f56565b61046b565b6101ac6101f9366004610ef7565b61048b565b61018161020c366004610ef7565b61049f565b6101616104aa565b6101ac610227366004610f93565b610538565b6101b761023a366004610f93565b610564565b6101ac6105ac565b6006546001600160a01b0316610181565b6101616105c0565b6101ac61026e366004610fae565b6105cf565b6101ac610281366004611000565b6105da565b610161610294366004610ef7565b6105f1565b6101446102a73660046110e4565b610666565b6101ac6102ba366004610f93565b610694565b60006001600160e01b031982166380ac58cd60e01b14806102f057506001600160e01b03198216635b5e139f60e01b145b8061030b57506301ffc9a760e01b6001600160e01b03198316145b92915050565b60606000805461032090611117565b80601f016020809104026020016040519081016040528092919081815260200182805461034c90611117565b80156103995780601f1061036e57610100808354040283529160200191610399565b820191906000526020600020905b81548152906001019060200180831161037c57829003601f168201915b5050505050905090565b60006103ae826106cf565b506000828152600460205260409020546001600160a01b031661030b565b6103d7828233610708565b5050565b6001600160a01b03821661040a57604051633250574960e11b8152600060048201526024015b60405180910390fd5b6000610417838333610715565b9050836001600160a01b0316816001600160a01b031614610465576040516364283d7b60e01b81526001600160a01b0380861660048301526024820184905282166044820152606401610401565b50505050565b610486838383604051806020016040528060008152506105da565b505050565b61049361080e565b61049c8161083b565b50565b600061030b826106cf565b600780546104b790611117565b80601f01602080910402602001604051908101604052809291908181526020018280546104e390611117565b80156105305780601f1061050557610100808354040283529160200191610530565b820191906000526020600020905b81548152906001019060200180831161051357829003601f168201915b505050505081565b61054061080e565b61054c81600854610876565b6008805490600061055c83611151565b919050555050565b60006001600160a01b038216610590576040516322718ad960e21b815260006004820152602401610401565b506001600160a01b031660009081526003602052604090205490565b6105b461080e565b6105be6000610890565b565b60606001805461032090611117565b6103d73383836108e2565b6105e58484846103db565b61046584848484610981565b60606105fc826106cf565b50600061061460408051602081019091526000815290565b90506000815111610634576040518060200160405280600081525061065f565b8061063e84610aaa565b60405160200161064f929190611178565b6040516020818303038152906040525b9392505050565b6001600160a01b03918216600090815260056020908152604080832093909416825291909152205460ff1690565b61069c61080e565b6001600160a01b0381166106c657604051631e4fbdf760e01b815260006004820152602401610401565b61049c81610890565b6000818152600260205260408120546001600160a01b03168061030b57604051637e27328960e01b815260048101849052602401610401565b6104868383836001610b3d565b6000828152600260205260408120546001600160a01b039081169083161561074257610742818486610c43565b6001600160a01b038116156107805761075f600085600080610b3d565b6001600160a01b038116600090815260036020526040902080546000190190555b6001600160a01b038516156107af576001600160a01b0385166000908152600360205260409020805460010190555b60008481526002602052604080822080546001600160a01b0319166001600160a01b0389811691821790925591518793918516917fddf252ad1be2c89b69c2b068fc378daa952ba7f163c4a11628f55a4df523b3ef91a4949350505050565b6006546001600160a01b031633146105be5760405163118cdaa760e01b8152336004820152602401610401565b600061084a6000836000610715565b90506001600160a01b0381166103d757604051637e27328960e01b815260048101839052602401610401565b6103d7828260405180602001604052806000815250610ca7565b600680546001600160a01b038381166001600160a01b0319831681179093556040519116919082907f8be0079c531659141344cd1fd0a4f28419497f9722a3daafe3b4186f6b6457e090600090a35050565b6001600160a01b03821661091457604051630b61174360e31b81526001600160a01b0383166004820152602401610401565b6001600160a01b03838116600081815260056020908152604080832094871680845294825291829020805460ff191686151590811790915591519182527f17307eab39ab6107e8899845ad3d59bd9653f200f220920489ca2b5937696c31910160405180910390a3505050565b6001600160a01b0383163b1561046557604051630a85bd0160e11b81526001600160a01b0384169063150b7a02906109c39033908890879087906004016111a7565b6020604051808303816000875af19250505080156109fe575060408051601f3d908101601f191682019092526109fb918101906111e4565b60015b610a67573d808015610a2c576040519150601f19603f3d011682016040523d82523d6000602084013e610a31565b606091505b508051600003610a5f57604051633250574960e11b81526001600160a01b0385166004820152602401610401565b805181602001fd5b6001600160e01b03198116630a85bd0160e11b14610aa357604051633250574960e11b81526001600160a01b0385166004820152602401610401565b5050505050565b60606000610ab783610cbe565b600101905060008167ffffffffffffffff811115610ad757610ad7610fea565b6040519080825280601f01601f191660200182016040528015610b01576020820181803683370190505b5090508181016020015b600019016f181899199a1a9b1b9c1cb0b131b232b360811b600a86061a8153600a8504945084610b0b57509392505050565b8080610b5157506001600160a01b03821615155b15610c13576000610b61846106cf565b90506001600160a01b03831615801590610b8d5750826001600160a01b0316816001600160a01b031614155b8015610ba05750610b9e8184610666565b155b15610bc95760405163a9fbf51f60e01b81526001600160a01b0384166004820152602401610401565b8115610c115783856001600160a01b0316826001600160a01b03167f8c5be1e5ebec7d5bd14f71427d1e84f3dd0314c0f7b2291e5b200ac8c7c3b92560405160405180910390a45b505b5050600090815260046020526040902080546001600160a01b0319166001600160a01b0392909216919091179055565b610c4e838383610d96565b610486576001600160a01b038316610c7c57604051637e27328960e01b815260048101829052602401610401565b60405163177e802f60e01b81526001600160a01b038316600482015260248101829052604401610401565b610cb18383610dfc565b6104866000848484610981565b60008072184f03e93ff9f4daa797ed6e38ed64bf6a1f0160401b8310610cfd5772184f03e93ff9f4daa797ed6e38ed64bf6a1f0160401b830492506040015b6d04ee2d6d415b85acef81000000008310610d29576d04ee2d6d415b85acef8100000000830492506020015b662386f26fc100008310610d4757662386f26fc10000830492506010015b6305f5e1008310610d5f576305f5e100830492506008015b6127108310610d7357612710830492506004015b60648310610d85576064830492506002015b600a831061030b5760010192915050565b60006001600160a01b03831615801590610df45750826001600160a01b0316846001600160a01b03161480610dd05750610dd08484610666565b80610df457506000828152600460205260409020546001600160a01b038481169116145b949350505050565b6001600160a01b038216610e2657604051633250574960e11b815260006004820152602401610401565b6000610e3483836000610715565b90506001600160a01b03811615610486576040516339e3563760e11b815260006004820152602401610401565b6001600160e01b03198116811461049c57600080fd5b600060208284031215610e8957600080fd5b813561065f81610e61565b60005b83811015610eaf578181015183820152602001610e97565b50506000910152565b60008151808452610ed0816020860160208601610e94565b601f01601f19169290920160200192915050565b60208152600061065f6020830184610eb8565b600060208284031215610f0957600080fd5b5035919050565b80356001600160a01b0381168114610f2757600080fd5b919050565b60008060408385031215610f3f57600080fd5b610f4883610f10565b946020939093013593505050565b600080600060608486031215610f6b57600080fd5b610f7484610f10565b9250610f8260208501610f10565b929592945050506040919091013590565b600060208284031215610fa557600080fd5b61065f82610f10565b60008060408385031215610fc157600080fd5b610fca83610f10565b915060208301358015158114610fdf57600080fd5b809150509250929050565b634e487b7160e01b600052604160045260246000fd5b6000806000806080858703121561101657600080fd5b61101f85610f10565b935061102d60208601610f10565b925060408501359150606085013567ffffffffffffffff81111561105057600080fd5b8501601f8101871361106157600080fd5b803567ffffffffffffffff81111561107b5761107b610fea565b604051601f8201601f19908116603f0116810167ffffffffffffffff811182821017156110aa576110aa610fea565b6040528181528282016020018910156110c257600080fd5b8160208401602083013760006020838301015280935050505092959194509250565b600080604083850312156110f757600080fd5b61110083610f10565b915061110e60208401610f10565b90509250929050565b600181811c9082168061112b57607f821691505b60208210810361114b57634e487b7160e01b600052602260045260246000fd5b50919050565b60006001820161117157634e487b7160e01b600052601160045260246000fd5b5060010190565b6000835161118a818460208801610e94565b83519083019061119e818360208801610e94565b01949350505050565b6001600160a01b03858116825284166020820152604081018390526080606082018190526000906111da90830184610eb8565b9695505050505050565b6000602082840312156111f657600080fd5b815161065f81610e6156fea2646970667358221220dd94f39db55dc6f3adc16c00ee658afc287b2ae48b17ffad52caf7b7afd77a1c64736f6c634300081a0033","linkReferences":{}},"methodIdentifiers":{"approve(address,uint256)":"095ea7b3","balanceOf(address)":"70a08231","burn(uint256)":"42966c68","currURI()":"645a00c6","getApproved(uint256)":"081812fc","isApprovedForAll(address,address)":"e985e9c5","mint(address)":"6a627842","name()":"06fdde03","owner()":"8da5cb5b","ownerOf(uint256)":"6352211e","renounceOwnership()":"715018a6","safeTransferFrom(address,address,uint256)":"42842e0e","safeTransferFrom(address,address,uint256,bytes)":"b88d4fde","setApprovalForAll(address,bool)":"a22cb465","supportsInterface(bytes4)":"01ffc9a7","symbol()":"95d89b41","tokenId()":"17d70f7c","tokenURI(uint256)":"c87b56dd","transferFrom(address,address,uint256)":"23b872dd","transferOwnership(address)":"f2fde38b"},"id":45}