{"abi":[{"type":"receive","stateMutability":"payable"},{"type":"function","name":"addGuardian","inputs":[{"name":"_guardian","type":"address","internalType":"address"}],"outputs":[],"stateMutability":"nonpayable"},{"type":"function","name":"approveNFT","inputs":[{"name":"_tokenAddress","type":"address","internalType":"address"},{"name":"_tokenID","type":"uint256","internalType":"uint256"},{"name":"_to","type":"address","internalType":"address"}],"outputs":[],"stateMutability":"nonpayable"},{"type":"function","name":"approveToken","inputs":[{"name":"_tokenAddress","type":"address","internalType":"address"},{"name":"_to","type":"address","internalType":"address"},{"name":"_amount","type":"uint256","internalType":"uint256"}],"outputs":[],"stateMutability":"nonpayable"},{"type":"function","name":"currentRecovery","inputs":[],"outputs":[{"name":"newOwner","type":"address","internalType":"address"},{"name":"tokenAddress","type":"address","internalType":"address"},{"name":"tokenID","type":"uint256","internalType":"uint256"},{"name":"approvalCount","type":"uint8","internalType":"uint8"},{"name":"startTime","type":"uint256","internalType":"uint256"}],"stateMutability":"view"},{"type":"function","name":"execute","inputs":[{"name":"to","type":"address","internalType":"address"},{"name":"value","type":"uint256","internalType":"uint256"},{"name":"data","type":"bytes","internalType":"bytes"},{"name":"operation","type":"uint8","internalType":"uint8"}],"outputs":[{"name":"result","type":"bytes","internalType":"bytes"}],"stateMutability":"payable"},{"type":"function","name":"executeRecovery","inputs":[],"outputs":[],"stateMutability":"nonpayable"},{"type":"function","name":"getApprovals","inputs":[],"outputs":[{"name":"","type":"tuple[]","internalType":"struct TBA.TokenData[]","components":[{"name":"tokenAddress","type":"address","internalType":"address"},{"name":"userAddress","type":"address","internalType":"address"},{"name":"amount","type":"uint256","internalType":"uint256"}]},{"name":"","type":"tuple[]","internalType":"struct TBA.NFTData[]","components":[{"name":"tokenAddress","type":"address","internalType":"address"},{"name":"tokenID","type":"uint256","internalType":"uint256"}]},{"name":"","type":"address[]","internalType":"address[]"}],"stateMutability":"view"},{"type":"function","name":"getGuardianCount","inputs":[],"outputs":[{"name":"","type":"uint256","internalType":"uint256"}],"stateMutability":"view"},{"type":"function","name":"getReceiver","inputs":[],"outputs":[{"name":"","type":"address","internalType":"address"}],"stateMutability":"view"},{"type":"function","name":"getReset","inputs":[],"outputs":[{"name":"","type":"bool","internalType":"bool"}],"stateMutability":"view"},{"type":"function","name":"getState","inputs":[],"outputs":[{"name":"","type":"uint256","internalType":"uint256"}],"stateMutability":"view"},{"type":"function","name":"getThreshold","inputs":[],"outputs":[{"name":"","type":"uint8","internalType":"uint8"}],"stateMutability":"view"},{"type":"function","name":"guardianFlag","inputs":[],"outputs":[{"name":"","type":"bool","internalType":"bool"}],"stateMutability":"view"},{"type":"function","name":"guardians","inputs":[{"name":"","type":"uint256","internalType":"uint256"}],"outputs":[{"name":"","type":"address","internalType":"address"}],"stateMutability":"view"},{"type":"function","name":"guardiansMap","inputs":[{"name":"","type":"address","internalType":"address"}],"outputs":[{"name":"","type":"bool","internalType":"bool"}],"stateMutability":"view"},{"type":"function","name":"initializeGuardians","inputs":[{"name":"_guardians","type":"address[]","internalType":"address[]"}],"outputs":[],"stateMutability":"nonpayable"},{"type":"function","name":"isValidSigner","inputs":[{"name":"signer","type":"address","internalType":"address"},{"name":"","type":"bytes","internalType":"bytes"}],"outputs":[{"name":"","type":"bytes4","internalType":"bytes4"}],"stateMutability":"view"},{"type":"function","name":"lock","inputs":[{"name":"_lockTime","type":"uint256","internalType":"uint256"}],"outputs":[],"stateMutability":"nonpayable"},{"type":"function","name":"nftApprovals","inputs":[{"name":"","type":"uint256","internalType":"uint256"}],"outputs":[{"name":"tokenAddress","type":"address","internalType":"address"},{"name":"tokenID","type":"uint256","internalType":"uint256"}],"stateMutability":"view"},{"type":"function","name":"nftOperators","inputs":[{"name":"","type":"uint256","internalType":"uint256"}],"outputs":[{"name":"","type":"address","internalType":"address"}],"stateMutability":"view"},{"type":"function","name":"onERC1155BatchReceived","inputs":[{"name":"","type":"address","internalType":"address"},{"name":"","type":"address","internalType":"address"},{"name":"","type":"uint256[]","internalType":"uint256[]"},{"name":"","type":"uint256[]","internalType":"uint256[]"},{"name":"","type":"bytes","internalType":"bytes"}],"outputs":[{"name":"","type":"bytes4","internalType":"bytes4"}],"stateMutability":"pure"},{"type":"function","name":"onERC1155Received","inputs":[{"name":"","type":"address","internalType":"address"},{"name":"","type":"address","internalType":"address"},{"name":"","type":"uint256","internalType":"uint256"},{"name":"","type":"uint256","internalType":"uint256"},{"name":"","type":"bytes","internalType":"bytes"}],"outputs":[{"name":"","type":"bytes4","internalType":"bytes4"}],"stateMutability":"pure"},{"type":"function","name":"onERC721Received","inputs":[{"name":"","type":"address","internalType":"address"},{"name":"","type":"address","internalType":"address"},{"name":"","type":"uint256","internalType":"uint256"},{"name":"","type":"bytes","internalType":"bytes"}],"outputs":[{"name":"","type":"bytes4","internalType":"bytes4"}],"stateMutability":"pure"},{"type":"function","name":"owner","inputs":[],"outputs":[{"name":"","type":"address","internalType":"address"}],"stateMutability":"view"},{"type":"function","name":"proposeRecovery","inputs":[{"name":"_newOwner","type":"address","internalType":"address"},{"name":"_tokenAddress","type":"address","internalType":"address"},{"name":"_tokenID","type":"uint256","internalType":"uint256"}],"outputs":[],"stateMutability":"nonpayable"},{"type":"function","name":"recoveryPeriod","inputs":[],"outputs":[{"name":"","type":"uint256","internalType":"uint256"}],"stateMutability":"view"},{"type":"function","name":"removeGuardian","inputs":[{"name":"_guardian","type":"address","internalType":"address"}],"outputs":[],"stateMutability":"nonpayable"},{"type":"function","name":"reset","inputs":[],"outputs":[],"stateMutability":"nonpayable"},{"type":"function","name":"setOperator","inputs":[{"name":"_tokenAddress","type":"address","internalType":"address"},{"name":"_operator","type":"address","internalType":"address"},{"name":"_flag","type":"bool","internalType":"bool"}],"outputs":[],"stateMutability":"nonpayable"},{"type":"function","name":"setReceiver","inputs":[{"name":"_receiver","type":"address","internalType":"address"}],"outputs":[],"stateMutability":"nonpayable"},{"type":"function","name":"state","inputs":[],"outputs":[{"name":"","type":"uint256","internalType":"uint256"}],"stateMutability":"view"},{"type":"function","name":"supportsInterface","inputs":[{"name":"interfaceId","type":"bytes4","internalType":"bytes4"}],"outputs":[{"name":"","type":"bool","internalType":"bool"}],"stateMutability":"view"},{"type":"function","name":"threshold","inputs":[],"outputs":[{"name":"","type":"uint8","internalType":"uint8"}],"stateMutability":"view"},{"type":"function","name":"token","inputs":[],"outputs":[{"name":"","type":"uint256","internalType":"uint256"},{"name":"","type":"address","internalType":"address"},{"name":"","type":"uint256","internalType":"uint256"}],"stateMutability":"view"},{"type":"function","name":"tokenApprovals","inputs":[{"name":"","type":"uint256","internalType":"uint256"}],"outputs":[{"name":"tokenAddress","type":"address","internalType":"address"},{"name":"userAddress","type":"address","internalType":"address"},{"name":"amount","type":"uint256","internalType":"uint256"}],"stateMutability":"view"},{"type":"function","name":"unlock","inputs":[],"outputs":[],"stateMutability":"nonpayable"},{"type":"function","name":"voteRecovery","inputs":[],"outputs":[],"stateMutability":"nonpayable"}],"bytecode":{"object":"0x600360808181526101006040529060a0606080368337505081516028926000925060200190605c565b506102586008556009805462ffff001916610200179055600b805460ff19166001179055348015605757600080fd5b5060cf565b82805482825590600052602060002090810192821560ae579160200282015b8281111560ae57825182546001600160a01b0319166001600160a01b03909116178255602090920191600190910190607b565b5060b892915060bc565b5090565b5b8082111560b8576000815560010160bd565b612a76806100de6000396000f3fe60806040526004361061021e5760003560e01c8063a221a6a811610123578063d826f88f116100ab578063e8f0a74f1161006f578063e8f0a74f14610699578063f23a6e6114610705578063f2e6537d14610732578063f560c73414610747578063fc0c546a1461076757600080fd5b8063d826f88f14610607578063da3e33971461061c578063da83dd2d1461063c578063dd4670641461065c578063e75235b81461067c57600080fd5b8063bc197c81116100f2578063bc197c8114610562578063bc735d9014610591578063c19d93fb146105b1578063c5bee5c1146105c7578063d10b6e0c146105e757600080fd5b8063a221a6a8146104c7578063a526d83b146104e7578063a69df4b514610507578063acdeb5b91461051c57600080fd5b80635ea26734116101a65780638369a08b116101755780638369a08b1461040d5780638da5cb5b1461044c578063939da35c1461046157806398aca922146104795780639ed6c71e1461049757600080fd5b80635ea2673414610371578063603a8538146103a957806371404156146103cd578063718da7ee146103ed57600080fd5b806320c5a3e1116101ed57806320c5a3e1146102d157806336aea01e146102e857806342cde4e8146103005780635194544714610331578063523e32601461035157600080fd5b806301ffc9a71461022a578063150b7a021461025f57806316c3e22f146102985780631865c57d146102bc57600080fd5b3661022557005b600080fd5b34801561023657600080fd5b5061024a61024536600461218b565b61079f565b60405190151581526020015b60405180910390f35b34801561026b57600080fd5b5061027f61027a366004612223565b6107f1565b6040516001600160e01b03199091168152602001610256565b3480156102a457600080fd5b506102ae60085481565b604051908152602001610256565b3480156102c857600080fd5b50600a546102ae565b3480156102dd57600080fd5b506102e6610803565b005b3480156102f457600080fd5b5060095460ff166102ae565b34801561030c57600080fd5b5060095461031f90610100900460ff1681565b60405160ff9091168152602001610256565b61034461033f366004612296565b610904565b6040516102569190612334565b34801561035d57600080fd5b5061027f61036c366004612367565b610afd565b34801561037d57600080fd5b5061039161038c3660046123bc565b610b26565b6040516001600160a01b039091168152602001610256565b3480156103b557600080fd5b506103be610b50565b60405161025693929190612461565b3480156103d957600080fd5b506102e66103e83660046124f5565b610cb2565b3480156103f957600080fd5b506102e66104083660046124f5565b610fa4565b34801561041957600080fd5b5061042d6104283660046123bc565b610fce565b604080516001600160a01b039093168352602083019190915201610256565b34801561045857600080fd5b50610391611006565b34801561046d57600080fd5b50600b5460ff1661024a565b34801561048557600080fd5b50600f546001600160a01b0316610391565b3480156104a357600080fd5b5061024a6104b23660046124f5565b60016020526000908152604090205460ff1681565b3480156104d357600080fd5b5060095461024a9062010000900460ff1681565b3480156104f357600080fd5b506102e66105023660046124f5565b61109c565b34801561051357600080fd5b506102e66111e1565b34801561052857600080fd5b5061053c6105373660046123bc565b611236565b604080516001600160a01b03948516815293909216602084015290820152606001610256565b34801561056e57600080fd5b5061027f61057d366004612557565b63bc197c8160e01b98975050505050505050565b34801561059d57600080fd5b506102e66105ac366004612630565b611276565b3480156105bd57600080fd5b506102ae600a5481565b3480156105d357600080fd5b506102e66105e2366004612691565b6113ed565b3480156105f357600080fd5b506102e6610602366004612761565b611577565b34801561061357600080fd5b506102e6611660565b34801561062857600080fd5b506102e6610637366004612798565b611935565b34801561064857600080fd5b506102e6610657366004612798565b611ac2565b34801561066857600080fd5b506102e66106773660046123bc565b611c23565b34801561068857600080fd5b50600954610100900460ff1661031f565b3480156106a557600080fd5b506002546003546004546005546006546106cf946001600160a01b039081169416929160ff169085565b604080516001600160a01b0396871681529590941660208601529284019190915260ff166060830152608082015260a001610256565b34801561071157600080fd5b5061027f6107203660046127d9565b63f23a6e6160e01b9695505050505050565b34801561073e57600080fd5b506102e6611c84565b34801561075357600080fd5b506103916107623660046123bc565b611d9b565b34801561077357600080fd5b5061077c611dab565b604080519384526001600160a01b03909216602084015290820152606001610256565b60006001600160e01b03198216630a85bd0160e11b14806107d057506001600160e01b03198216630271189760e51b145b806107eb57506001600160e01b031982166301ffc9a760e01b145b92915050565b630a85bd0160e11b5b95945050505050565b3360009081526001602052604090205460ff1661083b5760405162461bcd60e51b815260040161083290612855565b60405180910390fd5b60055460ff166108875760405162461bcd60e51b81526020600482015260176024820152766e6f207265636f7665727920696e2070726f677265737360481b6044820152606401610832565b60095460055460ff6101009092048216911610156108da5760405162461bcd60e51b815260206004820152601060248201526f6e6f7420656e6f75676820766f74657360801b6044820152606401610832565b6002546003546004546108fa926001600160a01b03908116921690611dfe565b610902611e6b565b565b6060600a546000146109285760405162461bcd60e51b81526004016108329061287c565b610930611f26565b60ff82161561098c5760405162461bcd60e51b815260206004820152602260248201527f4f6e6c792063616c6c206f7065726174696f6e732061726520737570706f7274604482015261195960f21b6064820152608401610832565b8215610abc577f095ea7b334ae44009aa867bfb386f5c3b4b443ac6f0ee573fa91c4608fbadfba63095ea7b360e01b6109c96004600087896128a8565b6109d2916128d2565b6001600160e01b03191603610a225760405162461bcd60e51b8152602060048201526016602482015275105c1c1c9bdd99481a5cc81b9bdd08185b1b1bddd95960521b6044820152606401610832565b7fa22cb4651ab9570f89bb516380c40ce76762284fb1f21337ceaf6adab99e7d4a63a22cb46560e01b610a5960046000888a6128a8565b610a62916128d2565b6001600160e01b03191603610ab95760405162461bcd60e51b815260206004820181905260248201527f736574417070726f76616c466f72416c6c206973206e6f7420616c6c6f7765646044820152606401610832565b50505b6107fa868686868080601f016020809104026020016040519081016040528093929190818152602001838380828437600092019190915250611f8492505050565b6000610b0884611ffb565b15610b1b5750630291f19360e51b610b1f565b5060005b9392505050565b600e8181548110610b3657600080fd5b6000918252602090912001546001600160a01b0316905081565b6060806060600c600d600e82805480602002602001604051908101604052809291908181526020016000905b82821015610bd6576000848152602090819020604080516060810182526003860290920180546001600160a01b03908116845260018083015490911684860152600290910154918301919091529083529092019101610b7c565b50505050925081805480602002602001604051908101604052809291908181526020016000905b82821015610c45576000848152602090819020604080518082019091526002850290910180546001600160a01b03168252600190810154828401529083529092019101610bfd565b50505050915080805480602002602001604051908101604052809291908181526020018280548015610ca057602002820191906000526020600020905b81546001600160a01b03168152600190910190602001808311610c82575b50505050509050925092509250909192565b610cba611f26565b6001600160a01b03811660009081526001602052604090205460ff16610d225760405162461bcd60e51b815260206004820152601760248201527f677561726469616e20646f6573206e6f742065786973740000000000000000006044820152606401610832565b60095460ff16600103610d3c576009805462ff0000191690555b60005b60095460ff9081169082161015610f7457816001600160a01b031660008260ff1681548110610d7057610d7061290a565b6000918252602090912001546001600160a01b031603610f6c578060ff16600003610eb9576000600181548110610da957610da961290a565b600091825260208220015481546001600160a01b03909116919060ff8416908110610dd657610dd661290a565b9060005260206000200160006101000a8154816001600160a01b0302191690836001600160a01b031602179055506000600281548110610e1857610e1861290a565b600091825260208220015481546001600160a01b0390911691906001908110610e4357610e4361290a565b9060005260206000200160006101000a8154816001600160a01b0302191690836001600160a01b03160217905550600080600281548110610e8657610e8661290a565b9060005260206000200160006101000a8154816001600160a01b0302191690836001600160a01b03160217905550610f4b565b8060ff16600103610f05576000600281548110610ed857610ed861290a565b600091825260208220015481546001600160a01b03909116919060ff8416908110610e4357610e4361290a565b6000808260ff1681548110610f1c57610f1c61290a565b9060005260206000200160006101000a8154816001600160a01b0302191690836001600160a01b031602179055505b6001600160a01b0382166000908152600160205260409020805460ff191690555b600101610d3f565b506009805460ff16906000610f8883612936565b91906101000a81548160ff021916908360ff1602179055505050565b610fac611f26565b600f80546001600160a01b0319166001600160a01b0392909216919091179055565b600d8181548110610fde57600080fd5b6000918252602090912060029091020180546001909101546001600160a01b03909116915082565b600080600080611014611dab565b92509250925046831461102b576000935050505090565b6040516331a9108f60e11b8152600481018290526001600160a01b03831690636352211e90602401602060405180830381865afa158015611070573d6000803e3d6000fd5b505050506040513d601f19601f820116820180604052508101906110949190612953565b935050505090565b6110a4611f26565b600954600360ff909116106111065760405162461bcd60e51b815260206004820152602260248201527f677561726469616e20636f756e74206d757374206265206c657373207468616e604482015261040760f31b6064820152608401610832565b6001600160a01b03811660009081526001602052604090205460ff161561116f5760405162461bcd60e51b815260206004820152601760248201527f677561726469616e20616c7265616479206578697374730000000000000000006044820152606401610832565b60008054600180820183557f290decd9548b62a8d60345a988386fc84ba6bc95484008f6362f93160ef3e56390910180546001600160a01b0319166001600160a01b0385169081179091558252602081905260408220805460ff191690911790556009805460ff1691610f8883612970565b6011546010546111f1919061298f565b421061120d576000600a55600f80546001600160a01b03191690555b600f546001600160a01b03163303610902576000600a55600f80546001600160a01b0319169055565b600c818154811061124657600080fd5b60009182526020909120600390910201805460018201546002909201546001600160a01b03918216935091169083565b600a54156112965760405162461bcd60e51b81526004016108329061287c565b61129e611f26565b6001600160a01b0382166112c45760405162461bcd60e51b8152600401610832906129a2565b306001600160a01b038316036112ec5760405162461bcd60e51b8152600401610832906129a2565b6112f4611006565b6001600160a01b0316826001600160a01b0316036113245760405162461bcd60e51b8152600401610832906129a2565b600e80546001810182556000919091527fbb7b4a454dc3493923482f07822329ed19e8244eff582cc204f8554c3620c3fd0180546001600160a01b0319166001600160a01b0384811691821790925560405163a22cb46560e01b8152600481019190915282151560248201529084169063a22cb465906044015b600060405180830381600087803b1580156113b857600080fd5b505af11580156113cc573d6000803e3d6000fd5b5050600b5460ff161591506113e8905057600b805460ff191690555b505050565b6113f5611f26565b60008151118015611407575060048151105b6114535760405162461bcd60e51b815260206004820152601b60248201527f30203c204e756d626572206f6620677561726469616e73203c203400000000006044820152606401610832565b60095462010000900460ff16156114ac5760405162461bcd60e51b815260206004820152601d60248201527f677561726469616e7320616c726561647920696e697469616c697a65640000006044820152606401610832565b60005b81518110156115595760008282815181106114cc576114cc61290a565b60209081029190910181015182546001808201855560009485529284200180546001600160a01b0319166001600160a01b0390921691909117905583519091829185908590811061151f5761151f61290a565b6020908102919091018101516001600160a01b03168252810191909152604001600020805460ff19169115159190911790556001016114af565b50516009805462ff00ff191660ff9092169190911762010000179055565b600a54156115975760405162461bcd60e51b81526004016108329061287c565b61159f611f26565b6040805180820182526001600160a01b0385811680835260208301868152600d805460018101825560009190915293517fd7b6990105719101dabeb77144f2a3385c8033acd3af97e9423a695e81ad1eb5600290950294850180546001600160a01b031916918516919091179055517fd7b6990105719101dabeb77144f2a3385c8033acd3af97e9423a695e81ad1eb690930192909255915163095ea7b360e01b81529183166004830152602482018490529063095ea7b39060440161139e565b611668611f26565b600b5460ff16156116ab5760405162461bcd60e51b815260206004820152600d60248201526c105b1c9958591e4814995cd95d609a1b6044820152606401610832565b600b805460ff1916600117905560005b600c5481101561179f57600c81815481106116d8576116d861290a565b6000918252602090912060039091020154600c80546001600160a01b039092169163095ea7b39190849081106117105761171061290a565b600091825260208220600391909102016001015460405160e084901b6001600160e01b03191681526001600160a01b03909116600482015260248101919091526044016020604051808303816000875af1158015611772573d6000803e3d6000fd5b505050506040513d601f19601f8201168201806040525081019061179691906129cc565b506001016116bb565b5060005b600d5481101561187757600d81815481106117c0576117c061290a565b60009182526020822060029091020154600d80546001600160a01b039092169263095ea7b392909190859081106117f9576117f961290a565b60009182526020909120600160029092020101546040516001600160e01b031960e085901b1681526001600160a01b0390921660048301526024820152604401600060405180830381600087803b15801561185357600080fd5b505af1158015611867573d6000803e3d6000fd5b5050600190920191506117a39050565b5060005b600e5481101561191057600e81815481106118985761189861290a565b600091825260208220015460405163a22cb46560e01b81526004810183905260248101929092526001600160a01b03169063a22cb46590604401600060405180830381600087803b1580156118ec57600080fd5b505af1158015611900573d6000803e3d6000fd5b50506001909201915061187b9050565b5061191d600c60006120b9565b611929600d60006120da565b610902600e60006120fb565b600a54156119555760405162461bcd60e51b81526004016108329061287c565b61195d611f26565b604080516060810182526001600160a01b0380861680835285821660208401908152838501868152600c8054600181018255600091909152945160039095027fdf6966c971051c3d54ec59162606531493a51404a002842f56009d7e5cf4a8c7810180549686166001600160a01b031997881617905591517fdf6966c971051c3d54ec59162606531493a51404a002842f56009d7e5cf4a8c8830180549190951695169490941790925591517fdf6966c971051c3d54ec59162606531493a51404a002842f56009d7e5cf4a8c990910155905163095ea7b360e01b815263095ea7b390611a6490859085906004016001600160a01b03929092168252602082015260400190565b6020604051808303816000875af1158015611a83573d6000803e3d6000fd5b505050506040513d601f19601f82011682018060405250810190611aa791906129cc565b50600b5460ff16156113e857600b805460ff19169055505050565b3360009081526001602052604090205460ff16611af15760405162461bcd60e51b815260040161083290612855565b6001600160a01b038216611b3f5760405162461bcd60e51b8152602060048201526015602482015274696e76616c696420746f6b656e206164647265737360581b6044820152606401610832565b611b4883612020565b60055460ff1615611bbf57600854600654611b63919061298f565b4211611bbf5760405162461bcd60e51b815260206004820152602560248201527f54686572652069732063757272656e746c7920616e206163746976652070726f6044820152641c1bdcd85b60da1b6064820152608401610832565b426006556005805460ff19908116600190811790925533600090815260076020526040902080549091169091179055600280546001600160a01b039485166001600160a01b0319918216179091556003805493909416921691909117909155600455565b600f546001600160a01b0316611c6e5760405162461bcd60e51b815260206004820152601060248201526f149958d95a5d995c881b9bdd081cd95d60821b6044820152606401610832565b611c76611f26565b6001600a5542601055601155565b3360009081526001602052604090205460ff16611cb35760405162461bcd60e51b815260040161083290612855565b60055460ff16611cff5760405162461bcd60e51b81526020600482015260176024820152766e6f207265636f7665727920696e2070726f677265737360481b6044820152606401610832565b3360009081526007602052604090205460ff1615611d4f5760405162461bcd60e51b815260206004820152600d60248201526c185b1c9958591e481d9bdd1959609a1b6044820152606401610832565b6005805460ff16906000611d6283612970565b825460ff9182166101009390930a928302919092021990911617905550336000908152600760205260409020805460ff19166001179055565b60008181548110610b3657600080fd5b60408051606080825260808201909252600091829182918291906020820181803683370190505090506060604d60208301303c80806020019051810190611df291906129e9565b93509350935050909192565b6040516323b872dd60e01b81523060048201526001600160a01b038481166024830152604482018390528316906323b872dd90606401600060405180830381600087803b158015611e4e57600080fd5b505af1158015611e62573d6000803e3d6000fd5b50505050505050565b60005b60095460ff9081169082161015611f1757600060016000808460ff1681548110611e9a57611e9a61290a565b6000918252602080832091909101546001600160a01b031683528201929092526040018120805460ff1916921515929092179091558054819060ff8416908110611ee657611ee661290a565b600091825260209091200180546001600160a01b0319166001600160a01b0392909216919091179055600101611e6e565b506009805462ff00ff19169055565b611f2e611006565b6001600160a01b0316336001600160a01b0316146109025760405162461bcd60e51b815260206004820152601360248201527221b0b63632b91034b9903737ba1027bbb732b960691b6044820152606401610832565b600080846001600160a01b03168484604051611fa09190612a24565b60006040518083038185875af1925050503d8060008114611fdd576040519150601f19603f3d011682016040523d82523d6000602084013e611fe2565b606091505b509150915081611ff457805160208201fd5b5050505050565b6000612005611006565b6001600160a01b0316826001600160a01b0316149050919050565b6001600160a01b03811661206a5760405162461bcd60e51b815260206004820152601160248201527034b73b30b634b2103732bb9037bbb732b960791b6044820152606401610832565b306001600160a01b038216036120b65760405162461bcd60e51b815260206004820152601160248201527034b73b30b634b2103732bb9037bbb732b960791b6044820152606401610832565b50565b50805460008255600302906000526020600020908101906120b69190612119565b50805460008255600202906000526020600020908101906120b69190612150565b50805460008255906000526020600020908101906120b69190612176565b5b8082111561214c5780546001600160a01b0319908116825560018201805490911690556000600282015560030161211a565b5090565b5b8082111561214c5780546001600160a01b031916815560006001820155600201612151565b5b8082111561214c5760008155600101612177565b60006020828403121561219d57600080fd5b81356001600160e01b031981168114610b1f57600080fd5b6001600160a01b03811681146120b657600080fd5b80356121d5816121b5565b919050565b60008083601f8401126121ec57600080fd5b50813567ffffffffffffffff81111561220457600080fd5b60208301915083602082850101111561221c57600080fd5b9250929050565b60008060008060006080868803121561223b57600080fd5b8535612246816121b5565b94506020860135612256816121b5565b935060408601359250606086013567ffffffffffffffff81111561227957600080fd5b612285888289016121da565b969995985093965092949392505050565b6000806000806000608086880312156122ae57600080fd5b85356122b9816121b5565b945060208601359350604086013567ffffffffffffffff8111156122dc57600080fd5b6122e8888289016121da565b909450925050606086013560ff8116811461230257600080fd5b809150509295509295909350565b60005b8381101561232b578181015183820152602001612313565b50506000910152565b6020815260008251806020840152612353816040850160208701612310565b601f01601f19169190910160400192915050565b60008060006040848603121561237c57600080fd5b8335612387816121b5565b9250602084013567ffffffffffffffff8111156123a357600080fd5b6123af868287016121da565b9497909650939450505050565b6000602082840312156123ce57600080fd5b5035919050565b600081518084526020840193506020830160005b8281101561241c57815180516001600160a01b0316875260209081015181880152604090960195909101906001016123e9565b5093949350505050565b600081518084526020840193506020830160005b8281101561241c5781516001600160a01b031686526020958601959091019060010161243a565b6060808252845190820181905260009060208601906080840190835b818110156124c257835180516001600160a01b03908116855260208083015190911681860152604091820151918501919091529093019260609092019160010161247d565b505083810360208501526124d681876123d5565b91505082810360408401526124eb8185612426565b9695505050505050565b60006020828403121561250757600080fd5b8135610b1f816121b5565b60008083601f84011261252457600080fd5b50813567ffffffffffffffff81111561253c57600080fd5b6020830191508360208260051b850101111561221c57600080fd5b60008060008060008060008060a0898b03121561257357600080fd5b883561257e816121b5565b9750602089013561258e816121b5565b9650604089013567ffffffffffffffff8111156125aa57600080fd5b6125b68b828c01612512565b909750955050606089013567ffffffffffffffff8111156125d657600080fd5b6125e28b828c01612512565b909550935050608089013567ffffffffffffffff81111561260257600080fd5b61260e8b828c016121da565b999c989b5096995094979396929594505050565b80151581146120b657600080fd5b60008060006060848603121561264557600080fd5b8335612650816121b5565b92506020840135612660816121b5565b9150604084013561267081612622565b809150509250925092565b634e487b7160e01b600052604160045260246000fd5b6000602082840312156126a357600080fd5b813567ffffffffffffffff8111156126ba57600080fd5b8201601f810184136126cb57600080fd5b803567ffffffffffffffff8111156126e5576126e561267b565b8060051b604051601f19603f830116810181811067ffffffffffffffff821117156127125761271261267b565b60405291825260208184018101929081018784111561273057600080fd5b6020850194505b8385101561275657612748856121ca565b815260209485019401612737565b509695505050505050565b60008060006060848603121561277657600080fd5b8335612781816121b5565b9250602084013591506040840135612670816121b5565b6000806000606084860312156127ad57600080fd5b83356127b8816121b5565b925060208401356127c8816121b5565b929592945050506040919091013590565b60008060008060008060a087890312156127f257600080fd5b86356127fd816121b5565b9550602087013561280d816121b5565b94506040870135935060608701359250608087013567ffffffffffffffff81111561283757600080fd5b61284389828a016121da565b979a9699509497509295939492505050565b6020808252600d908201526c37b7363c9033bab0b93234b0b760991b604082015260600190565b60208082526012908201527110dbdb9d1c9858dd081a5cc81b1bd8dad95960721b604082015260600190565b600080858511156128b857600080fd5b838611156128c557600080fd5b5050820193919092039150565b80356001600160e01b03198116906004841015612903576001600160e01b0319600485900360031b81901b82161691505b5092915050565b634e487b7160e01b600052603260045260246000fd5b634e487b7160e01b600052601160045260246000fd5b600060ff82168061294957612949612920565b6000190192915050565b60006020828403121561296557600080fd5b8151610b1f816121b5565b600060ff821660ff810361298657612986612920565b60010192915050565b808201808211156107eb576107eb612920565b60208082526010908201526f24b73b30b634b21027b832b930ba37b960811b604082015260600190565b6000602082840312156129de57600080fd5b8151610b1f81612622565b6000806000606084860312156129fe57600080fd5b83516020850151909350612a11816121b5565b6040949094015192959394509192915050565b60008251612a36818460208701612310565b919091019291505056fea264697066735822122054ba680dd40a3df8751de93e264d5e5f6a599bbe68b58e10871bfd345636e14c64736f6c634300081a0033","linkReferences":{}},"methodIdentifiers":{"addGuardian(address)":"a526d83b","approveNFT(address,uint256,address)":"d10b6e0c","approveToken(address,address,uint256)":"da3e3397","currentRecovery()":"e8f0a74f","execute(address,uint256,bytes,uint8)":"51945447","executeRecovery()":"20c5a3e1","getApprovals()":"603a8538","getGuardianCount()":"36aea01e","getReceiver()":"98aca922","getReset()":"939da35c","getState()":"1865c57d","getThreshold()":"e75235b8","guardianFlag()":"a221a6a8","guardians(uint256)":"f560c734","guardiansMap(address)":"9ed6c71e","initializeGuardians(address[])":"c5bee5c1","isValidSigner(address,bytes)":"523e3260","lock(uint256)":"dd467064","nftApprovals(uint256)":"8369a08b","nftOperators(uint256)":"5ea26734","onERC1155BatchReceived(address,address,uint256[],uint256[],bytes)":"bc197c81","onERC1155Received(address,address,uint256,uint256,bytes)":"f23a6e61","onERC721Received(address,address,uint256,bytes)":"150b7a02","owner()":"8da5cb5b","proposeRecovery(address,address,uint256)":"da83dd2d","recoveryPeriod()":"16c3e22f","removeGuardian(address)":"71404156","reset()":"d826f88f","setOperator(address,address,bool)":"bc735d90","setReceiver(address)":"718da7ee","state()":"c19d93fb","supportsInterface(bytes4)":"01ffc9a7","threshold()":"42cde4e8","token()":"fc0c546a","tokenApprovals(uint256)":"acdeb5b9","unlock()":"a69df4b5","voteRecovery()":"f2e6537d"},"id":47}