{"abi":[{"type":"constructor","inputs":[{"name":"_nft","type":"address","internalType":"address"}],"stateMutability":"nonpayable"},{"type":"function","name":"acceptOffer","inputs":[{"name":"tokenID","type":"uint256","internalType":"uint256"}],"outputs":[],"stateMutability":"nonpayable"},{"type":"function","name":"advanceAcceptOffer","inputs":[{"name":"tokenID","type":"uint256","internalType":"uint256"},{"name":"tbaAddress","type":"address","internalType":"address"}],"outputs":[],"stateMutability":"nonpayable"},{"type":"function","name":"advanceList","inputs":[{"name":"tokenID","type":"uint256","internalType":"uint256"},{"name":"tbaAddress","type":"address","internalType":"address"}],"outputs":[],"stateMutability":"nonpayable"},{"type":"function","name":"buyOffer","inputs":[{"name":"tokenID","type":"uint256","internalType":"uint256"},{"name":"_amount","type":"uint256","internalType":"uint256"}],"outputs":[],"stateMutability":"payable"},{"type":"function","name":"listNFT","inputs":[{"name":"tokenID","type":"uint256","internalType":"uint256"}],"outputs":[],"stateMutability":"nonpayable"},{"type":"function","name":"listedNFTOffers","inputs":[{"name":"","type":"uint256","internalType":"uint256"}],"outputs":[{"name":"buyer","type":"address","internalType":"address"},{"name":"amount","type":"uint256","internalType":"uint256"}],"stateMutability":"view"},{"type":"function","name":"listedNFTOwners","inputs":[{"name":"","type":"uint256","internalType":"uint256"}],"outputs":[{"name":"","type":"address","internalType":"address"}],"stateMutability":"view"},{"type":"function","name":"nft","inputs":[],"outputs":[{"name":"","type":"address","internalType":"contract ERC721"}],"stateMutability":"view"}],"bytecode":{"object":"0x6080604052348015600f57600080fd5b50604051610acb380380610acb833981016040819052602c916050565b600080546001600160a01b0319166001600160a01b0392909216919091179055607e565b600060208284031215606157600080fd5b81516001600160a01b0381168114607757600080fd5b9392505050565b610a3e8061008d6000396000f3fe60806040526004361061007b5760003560e01c8063befe00bd1161004e578063befe00bd1461015e578063c08912d614610171578063c815729d146101a7578063d076f13f146101c757600080fd5b80630e354d691461008057806347ccca02146100a257806359cdabe8146100df57806375c59a83146100ff575b600080fd5b34801561008c57600080fd5b506100a061009b36600461093e565b6101e7565b005b3480156100ae57600080fd5b506000546100c2906001600160a01b031681565b6040516001600160a01b0390911681526020015b60405180910390f35b3480156100eb57600080fd5b506100a06100fa36600461093e565b6103f2565b34801561010b57600080fd5b5061013f61011a36600461096e565b600260205260009081526040902080546001909101546001600160a01b039091169082565b604080516001600160a01b0390931683526020830191909152016100d6565b6100a061016c366004610987565b61060f565b34801561017d57600080fd5b506100c261018c36600461096e565b6001602052600090815260409020546001600160a01b031681565b3480156101b357600080fd5b506100a06101c236600461096e565b6106a2565b3480156101d357600080fd5b506100a06101e236600461096e565b61084e565b6000828152600160205260409020546001600160a01b031633146102525760405162461bcd60e51b815260206004820152601c60248201527f4f776e65722063616e6e6f742062757920686973206f776e204e46540000000060448201526064015b60405180910390fd5b6000828152600260205260409020600101546102a65760405162461bcd60e51b81526020600482015260136024820152724e6f206f666665727320617661696c61626c6560681b6044820152606401610249565b600082815260016020908152604080832054600290925280832054815163a69df4b560e01b815291516001600160a01b03938416949184169386169263a69df4b592600480830193919282900301818387803b15801561030557600080fd5b505af1158015610319573d6000803e3d6000fd5b50506000546040516323b872dd60e01b81526001600160a01b03868116600483015285811660248301526044820189905290911692506323b872dd9150606401600060405180830381600087803b15801561037357600080fd5b505af1158015610387573d6000803e3d6000fd5b5050506000858152600260205260408082206001015490516001600160a01b0386169350909181818185875af1925050503d80600081146103e4576040519150601f19603f3d011682016040523d82523d6000602084013e6103e9565b606091505b50505050505050565b806001600160a01b0316631865c57d6040518163ffffffff1660e01b8152600401602060405180830381865afa158015610430573d6000803e3d6000fd5b505050506040513d601f19601f8201168201806040525081019061045491906109a9565b6001146104975760405162461bcd60e51b8152602060048201526011602482015270151090481a5cc81b9bdd081b1bd8dad959607a1b6044820152606401610249565b306001600160a01b0316816001600160a01b03166398aca9226040518163ffffffff1660e01b8152600401602060405180830381865afa1580156104df573d6000803e3d6000fd5b505050506040513d601f19601f8201168201806040525081019061050391906109c2565b6001600160a01b03161461054d5760405162461bcd60e51b8152602060048201526011602482015270151090481a5cc81b9bdd081b1bd8dad959607a1b6044820152606401610249565b806001600160a01b031663939da35c6040518163ffffffff1660e01b8152600401602060405180830381865afa15801561058b573d6000803e3d6000fd5b505050506040513d601f19601f820116820180604052508101906105af91906109e6565b6105ee5760405162461bcd60e51b815260206004820152601060248201526f151090481a5cc81b9bdd081c995cd95d60821b6044820152606401610249565b50600090815260016020526040902080546001600160a01b03191633179055565b34811461065e5760405162461bcd60e51b815260206004820152601960248201527f416d6f756e74206e6f7420657175616c20746f2076616c7565000000000000006044820152606401610249565b60408051808201825233815260208082019384526000948552600290529220915182546001600160a01b0319166001600160a01b0390911617825551600190910155565b6000818152600160205260409020546001600160a01b031633146107085760405162461bcd60e51b815260206004820152601c60248201527f4f776e65722063616e6e6f742062757920686973206f776e204e4654000000006044820152606401610249565b60008181526002602052604090206001015461075c5760405162461bcd60e51b81526020600482015260136024820152724e6f206f666665727320617661696c61626c6560681b6044820152606401610249565b600081815260016020908152604080832054600290925280832054925490516323b872dd60e01b81526001600160a01b0392831660048201819052938316602482018190526044820186905292909116906323b872dd90606401600060405180830381600087803b1580156107d057600080fd5b505af11580156107e4573d6000803e3d6000fd5b5050506000848152600260205260408082206001015490516001600160a01b0386169350909181818185875af1925050503d8060008114610841576040519150601f19603f3d011682016040523d82523d6000602084013e610846565b606091505b505050505050565b60008181526001602052604080822080546001600160a01b031916331790559054905163020604bf60e21b81526004810183905230916001600160a01b03169063081812fc90602401602060405180830381865afa1580156108b4573d6000803e3d6000fd5b505050506040513d601f19601f820116820180604052508101906108d891906109c2565b6001600160a01b0316146109265760405162461bcd60e51b815260206004820152601560248201527410dbdb9d1c9858dd081b9bdd08185c1c1c9bdd9959605a1b6044820152606401610249565b50565b6001600160a01b038116811461092657600080fd5b6000806040838503121561095157600080fd5b82359150602083013561096381610929565b809150509250929050565b60006020828403121561098057600080fd5b5035919050565b6000806040838503121561099a57600080fd5b50508035926020909101359150565b6000602082840312156109bb57600080fd5b5051919050565b6000602082840312156109d457600080fd5b81516109df81610929565b9392505050565b6000602082840312156109f857600080fd5b815180151581146109df57600080fdfea26469706673582212201105691d40413b7047c3c9e97886241894ac8db1b0886a0822ce897a625c298c64736f6c634300081a0033","linkReferences":{}},"methodIdentifiers":{"acceptOffer(uint256)":"c815729d","advanceAcceptOffer(uint256,address)":"0e354d69","advanceList(uint256,address)":"59cdabe8","buyOffer(uint256,uint256)":"befe00bd","listNFT(uint256)":"d076f13f","listedNFTOffers(uint256)":"75c59a83","listedNFTOwners(uint256)":"c08912d6","nft()":"47ccca02"},"id":46}